:1000000090F8FF1F1104000041170000491700007D
:1000100000000000000000000000000000000000E0
:100020000000000000000000000000005117000068
:1000300000000000000000005917000061170000D8
:10004000650400006504000065040000650400000C
:1000500065040000650400006504000065040000FC
:1000600065040000650400006504000065040000EC
:1000700059180000611800006918000065040000AC
:1000800065040000351800006504000065040000E8
:100090006504000065040000751700008D1700005E
:1000A000A5170000ED1700006504000065040000BE
:1000B000650400006504000065040000650400009C
:10040000FFFFFFFFFFFFFFFFFFFFFFFFFFFFFEFFFD
:1004100072B60E490D4A0D4B0C4C0C4D0B4E0B4F4A
:10042000B846B946BA46BB46BC460948854609485F
:10043000804762B60849094A094B9B1A03DD043B11
:10044000C858D050FBDC01F0ABF800000000000001
:1004500090F8FF1FF1460000344C000000F4FF1F2D
:1004600008F4FF1F0048004765040000002243080D
:100470008B4274D303098B425FD3030A8B4244D36C
:10048000030B8B4228D3030C8B420DD3FF220902AE
:1004900012BA030C8B4202D31212090265D0030B6D
:1004A0008B4219D300E0090AC30B8B4201D3CB0363
:1004B000C01A5241830B8B4201D38B03C01A5241A5
:1004C000430B8B4201D34B03C01A5241030B8B42A7
:1004D00001D30B03C01A5241C30A8B4201D3CB0292
:1004E000C01A5241830A8B4201D38B02C01A524177
:1004F000430A8B4201D34B02C01A5241030A8B427A
:1005000001D30B02C01A5241CDD2C3098B4201D391
:10051000CB01C01A524183098B4201D38B01C01A0F
:10052000524143098B4201D34B01C01A5241030986
:100530008B4201D30B01C01A5241C3088B4201D335
:10054000CB00C01A524183088B4201D38B00C01AE2
:10055000524143088B4201D34B00C01A5241411A09
:1005600000D20146524110467047FFE701B5002016
:1005700000F0FCF802BDC0460029F7D003B5FFF734
:1005800075FF0EBC4243891A1847C04603460B4309
:100590007FD4002243088B4274D303098B425FD37C
:1005A000030A8B4244D3030B8B4228D3030C8B42A8
:1005B0000DD3FF22090212BA030C8B4202D312128E
:1005C000090265D0030B8B4219D300E0090AC30B63
:1005D0008B4201D3CB03C01A5241830B8B4201D310
:1005E0008B03C01A5241430B8B4201D34B03C01AF9
:1005F0005241030B8B4201D30B03C01A5241C30A71
:100600008B4201D3CB02C01A5241830A8B4201D3E1
:100610008B02C01A5241430A8B4201D34B02C01ACB
:100620005241030A8B4201D30B02C01A5241CDD270
:10063000C3098B4201D3CB01C01A524183098B42BB
:1006400001D38B01C01A524143098B4201D34B01A4
:10065000C01A524103098B4201D30B01C01A524107
:10066000C3088B4201D3CB00C01A524183088B428E
:1006700001D38B00C01A524143088B4201D34B0077
:10068000C01A5241411A00D20146524110467047E9
:100690005DE0CA0F00D04942031000D340425340EE
:1006A00000229C4603098B422DD3030A8B4212D3AE
:1006B000FC22890112BA030A8B420CD389019211E0
:1006C0008B4208D3890192118B4204D389013AD01D
:1006D000921100E08909C3098B4201D3CB01C01AF2
:1006E000524183098B4201D38B01C01A5241430905
:1006F0008B4201D34B01C01A524103098B4201D3F3
:100700000B01C01A5241C3088B4201D3CB00C01A5F
:10071000524183088B4201D38B00C01A5241D9D277
:1007200043088B4201D34B00C01A5241411A00D2F8
:100730000146634652415B10104601D34042002BF4
:1007400000D54942704763465B1000D3404201B573
:10075000002000F00BF802BD0029F8D003B5FFF728
:1007600015FF0EBC4243891A1847C0467047C04661
:100770009E2110B5C905041C00F030FE002803D1ED
:10078000201C00F08BF910BD9E21201CC90500F033
:1007900007F800F083F980231B069C466044F2E7CB
:1007A000F8B54A00430244004D02C00F240E061C57
:1007B0009B09120EC90FAD09FF2A00D175E0012770
:1007C0007940884250D0A01A002800DC8FE0002A2F
:1007D0001ED1002D00D075E05A0704D00F221A4018
:1007E000042A00D0043380220120D2041A40304071
:1007F000002A32D00134FF2C00D184E09B015B0A37
:10080000E4B25B02E4055B0A2343C0071843F8BD6A
:10081000FF2CE1D08022D20415431B287ADD01256C
:100820005B1B5A015DD59B019F09381C00F0E0FD60
:1008300005388740844269DC001B1F243A1C431C96
:10084000201ADA408740131C7C1EA74100243B433A
:10085000C2E7131E45D100230020DB08FF2C28D05F
:100860005B025B0AE4B2CCE7A11A00295BDD002A37
:100870002ED0FF2CB0D08022D20415431B2974DC6B
:100880002F1C2022CF40511A8D40691E8D413D43BF
:100890005B195A0125D50134FF2C74D001217E4A01
:1008A000194013405B080B4396E7002D00D088E702
:1008B00085E7002B27D08022D20313435B025B0A1B
:1008C000FF249EE701380028AAD0FF2CA5D183E79A
:1008D000002D00D180E701390029D9D0FF2CCDD1DE
:1008E0007AE75A0700D079E701203040B5E70028C1
:1008F00025D1621CD2B2012A55DD5F1B7A012DD5AC
:10090000EF1A0E1C91E7FF2400237AE7624B241AAA
:100910003B4061E7291C2022C140101A8540681E17
:1009200085410D437CE7002946D1621CD1B20129E3
:100930002BDDFF2A26D0EB185B08141C4CE7002C9B
:1009400015D0FF2A1AD08024E404404223431B28F8
:100950004DDD0123EB1A141C0E1C62E7002F00D0A2
:1009600063E700230020002477E7012590E7002BB0
:1009700039D0C0430028EDD0FF2AE8D12B1CFF243A
:100980000E1C29E7FF24002367E7002C5AD1002B17
:100990007FD0002D00D11FE75B195A01A1D53E4A37
:1009A0000134134018E7002C15D1002B2FD1002D56
:1009B0005ED02B1C0E1C0FE7002C21D1002B54D035
:1009C000C943002904D0FF2A4CD01B2958DD01233C
:1009D0005B19141C5DE7002B23D1002D4BD02B1C81
:1009E0000E1CFF24F8E62B1C141C0E1CF4E61E1C27
:1009F0002024C640201A8340581E83413343A9E770
:100A0000FF2A2FD08024E40449422343DDE7002D50
:100A100000D1E1E65A1B500100D41AE7EB1A0E1C74
:100A2000DAE6FF24002D00D1D6E68022DB08D203CF
:100A3000134204D0ED08154201D12B1C0E1CDB0023
:100A4000FF24C9E6002B0DD0FF24002D00D1C3E602
:100A50008022DB08D2031342F1D0ED081542EED11B
:100A60002B1CECE72B1CFF24B6E62B1C141CB3E656
:100A7000231C0020F1E6802300209B04FF24ECE6E9
:100A80001F1C2024CF40611A8B40591E8B413B43D1
:100A90009EE72B1CA0E6C046FFFFFFFB4202510A67
:100AA0004200C30F120E00207E2A0DDD9D2A0CDCB1
:100AB000802000040143952A0ADC9620821AD14046
:100AC0000A1C58424240D0187047034A9818FBE766
:100AD000963A91400A1CF4E7FFFFFF7F10B5041E11
:100AE00035D000F085FC9E21091A962909DC0828DA
:100AF00030DD021C231C083A93405B025B0AC8B23B
:100B000020E099290CDD0522231C121AD3401A1C5F
:100B1000031C1B339C40231C5C1EA34113431C1C61
:100B2000052801DD431F9C400F4B2340620704D082
:100B30000F221440042C00D004335A010ED49B0120
:100B40005B0AC8B25B025B0AC005184310BD0020F7
:100B50000023F7E763025B0AC8B2F3E79F21024A6A
:100B6000091A1340EBE7C046FFFFFFFBF0B55F46F5
:100B700056464D464446F0B40F0387B098464D00A4
:100B80003B0BCC0F061C924681469B466D0D019493
:100B90006BD0664B9D4235D080275B467F031F4359
:100BA000F3009946624BFF00400F9C460743002329
:100BB000BB46002665440093424617035000D20FFF
:100BC00053463F0B400D904600D172E0574A904289
:100BD00067D080235B031F435346554A5B0FFF00DA
:100BE0001F43944653460021DB0060444246624066
:100BF00092462D1A0E430F2E00D9A1E04D48B600A3
:100C0000805987465B461E4300D076E000239B4612
:100C10009946023308260093CEE799464346BB46E1
:100C200001930091009B022B6BD1019B9A460021FE
:100C300053460122002789461A403C4B00213F03BE
:100C40000C0D24053F0B27433B4C1B0527401F433E
:100C50007F00D2077F0817434846391C07B03CBCC9
:100C600090469946A246AB46F0BD03433ED05B4654
:100C7000002B00D19CE1584600F0BAFB2823311C20
:100C80001B1A021C5F46D940083A97400B1C96403D
:100C90003B439B46B1460023284D00262D1A009366
:100CA0008AE7524603213A43A0D1002700230221BC
:100CB0009CE752463A4315D0002F00D185E1381CFD
:100CC00000F096FB021C28215046891A131CC840CC
:100CD0005146083B99409F400B1C07431748002191
:100CE000801A83E70027002301217FE700239B462A
:100CF00099460133042600935EE703230C260093F4
:100D00005AE7032B00D13CE2012B00D0BFE11A1CB3
:100D1000019B1A4000210023002789468EE700230B
:100D20008027994600223F03004B87E7FF0700001A
:100D300001FCFFFF8C4A0000FFFF0F800DFCFFFF4E
:100D4000BB4500D951E100D14CE14A460392002253
:100D50005C469046013D180E3F0238431B0201934A
:100D6000030C994603041B0C4946061C201C1F1C3F
:100D70000093FFF77BFB021C7A4302904946201C3C
:100D8000171CFFF7F9FB039B09041B0C19438F4247
:100D90000CD9029B8919013B8E4200D952E18F4246
:100DA00000D84FE1029B8919023B0293CC1B201C07
:100DB0004946FFF75BFB009F834647434946201C9B
:100DC000FFF7DAFB039A0B041404240C23439F421D
:100DD0000DD95A469B19013A9E4200D930E19F42F3
:100DE00000D82DE10222524294469B19E344029A14
:100DF000DB1B17045A463A439346019C170C220CFE
:100E0000101C04925A4611042204120C141C090CE2
:100E10007C4305924A43414347436118100C09182B
:100E20008C4203D980204002844667440C0C120493
:100E30000804120C3C198118A34200D2E5E000D14D
:100E4000DFE01F1B43465C1AA04592415242BF1A85
:100E5000B74200D10EE1381C4946FFF707FB009B63
:100E6000029043434946381C9846FFF785FB230C04
:100E70000F041F43B8450CD9029BBF19013BBE426A
:100E800000D9FBE0B84500D8F8E0029BBF19023B4F
:100E900002934346FF1A4946381CFFF7E7FA009BC6
:100EA000039043434946381C9846FFF765FB2404EA
:100EB0000904240C214388450CD9039B8919013B63
:100EC0008E4200D9DCE0884500D8D9E0039B89191F
:100ED000023B03934346C91A029B039A1B04059CD9
:100EE0001A43100C13049146221C049F1B0C5A43F6
:100EF00044437B437843E318170CDB199C4203D926
:100F000080246402A44660441C0C12041B04120CCE
:100F100000199B18814200D296E000D1FCE04A46BD
:100F200001231A4391469B4BEB18002B00DC99E000
:100F30004A4652070AD00F2249460A40042A05D0E1
:100F40000431494592418946524293445A46D2015E
:100F500006D55A46904B1A4080239346DB00EB1887
:100F60008E4A934200DD62E64A465946D208490756
:100F700011435A4689465702514601225B053F0BF1
:100F80005B0D0A405AE680205A460003024208D010
:100F9000074206D107433F0399463F0B4246804B29
:100FA0004CE65F4607433F033F0B221C7C4B45E664
:100FB00000F01EFA031C2030272800DC5EE6083B08
:100FC0009E400023B346994665E6504600F010FA6D
:100FD000021C2032272A00DC75E657460838874075
:100FE00000237BE6994500D2AFE65A46594654089D
:100FF0004A46C8075208024303924A46D20790461F
:10100000A9E60027884500D31CE7019F5A46BC4645
:10101000E044B845BF417F42BF19FF18013ABE42C4
:1010200006D2BC425FD800D19FE03F1B934609E740
:10103000B742FAD1019B4345F3D9371B934601E7E9
:101040009346D4E60293B1E64A468919013A8E42A4
:1010500018D99146814200D061E7019A9A4200D0A6
:101060005DE760E74F4F7F1B382F13DD01225346AA
:101070001A404FE601235B42994654E7029308E782
:10108000039327E788423CD874D0914647E7019BF9
:101090009A4648E71F2F44DC434B4A469C465B4632
:1010A0006544FA40AB4013434A46AA40151C6A1EE9
:1010B00095415A46FA402B43171C5A0709D00F2274
:1010C0001A40042A05D01A1D9A429B415B42FF1820
:1010D000131C3A023ED55346012200211A40002734
:1010E00001238946AAE502235B429C46019AE34418
:1010F0009446E04490459B415B429B19DF193F1B9E
:10110000A0E6019F4A467C00BC42BF417F42BF1916
:10111000023AC91901949CE7002B95D10022019253
:101120009BE75A46214B5B1BDA40202F27D0204BF0
:101130009C465B466544AB4049460B43591E8B4178
:101140001343072200271A4007D00F2200271A4016
:10115000042AB8D17A077F023F0BDB081343994674
:10116000012253461A40002368E54145BBD8934607
:10117000002767E6019C9C42C3D391466DE700239C
:10118000DAE780275B463F031F433F033F0B019A8B
:10119000034B53E5FF030000FFFFFFFEFE070000C7
:1011A000FF07000002FCFFFF1E040000E2FBFFFF40
:1011B0003E0400004200120E511C38B5C9B2430271
:1011C0005D0AC40F012915DDE02189008C466D07F9
:1011D0001B0B62440021281C0D0D2D052B431C4DBB
:1011E00052052B40520813435B00E4075B0823437E
:1011F000191C38BD002A15D1002D1FD0281C00F065
:10120000F7F80A281DDC0B232A1C1B1ADA40131CD2
:10121000021C153295400F4A1B03121A52051B0B74
:10122000520DD7E7002D06D080221B0B120313436B
:101230006D07094ACEE7084A0023CBE700220023C6
:10124000C8E7031C0B3B9D402B1C0025E3E7C04671
:10125000FFFF0F8089030000FF07000070B50B033C
:101260004D00440F6D0D5B0A23436C1C6405C90FD0
:10127000C200640D012C2ADD3B4C2C19FE2C1ADC1B
:10128000002C35DD8001451EA841DB000343520FD1
:1012900013435A0704D00F221A40042A00D0043303
:1012A0008022D2041A4027D00134FF2C03D09B01A6
:1012B0005B0AE4B201E0FF2400235B02E4055B0A61
:1012C00023435B00C9075B080B43181C70BD002D4E
:1012D00006D113430ED100245B025B0AE4B2ECE7B3
:1012E0001A43E8D08020DB0080040343FF24D0E7CA
:1012F00017340CDA05230024DB08FF2CECD1002B7B
:101300002DD08022D20313435B025B0AD5E78024F1
:10131000164824042343401B1F280DDC144CA4460C
:101320006544AB401C1C131CAB405D1EAB41C2406E
:10133000234313430024ACE71E1C0E4C641BE64001
:10134000341C20280DD00C4884466544AB401D1C3D
:101350002A43531E9A41131C2343002499E7002378
:10136000ABE70025F4E7C04680FCFFFF9E030000CA
:1013700082FCFFFF7E030000A2FCFFFF8446081CE6
:101380006146FFE71FB500F0C5F8002801D4002131
:10139000C8421FBD10B500F049F84042013010BDF1
:1013A00010B500F0B7F8002801DB002010BD0120C7
:1013B00010BDC04610B500F0ADF8002801DD0020DA
:1013C00010BD012010BDC04610B500F059F800282E
:1013D00001DC002010BD012010BDC04610B500F09A
:1013E0004FF8002801DA002010BD012010BDC046D2
:1013F0001C2101231B04984201D3000C10391B0A45
:10140000984201D3000A08391B09984201D3000908
:10141000043902A2105C40187047C046040302025F
:10142000010101010000000000000000430270B54E
:1014300042004C005D0AC30F4802120E460A240EF9
:10144000C90FFF2A05D0FF2C08D00120A2420BD0E3
:1014500070BD0120002DFBD1FF2CF6D10120002E04
:10146000F6D10120A242F3D1B542F1D18B4205D091
:10147000002AEDD1281C431E9841E9E70020E7E748
:10148000F0B543024D024A0044005E0A240EC30F29
:101490006D0A120EC90FFF2C0DD0FF2A31D0002C7F
:1014A0000DD177427741002A23D1002D21D1002090
:1014B000002F0BD107E0002E28D1FF2A21D0002ACF
:1014C00005D08B4207D0584201231843F0BD002DB0
:1014D000F9D08B42F7D19442F5DC04DBAE42F2D86E
:1014E0000020AE42F2D25842434101205B421843F1
:1014F000ECE7002FE5D04842414101204942084332
:10150000E4E7002D02D1002CCBD0DAE702204042E4
:10151000DCE7C0464302F0B542004C005E0AC30F50
:101520004802120E450A240EC90FFF2A0FD0FF2CC5
:101530001AD0002A10D177427741002C29D0002FF1
:1015400017D0484241410120494208430BE00220A4
:10155000002E08D1FF2C07D0002C0AD1002D08D175
:10156000584201231843F0BD0220002DFBD1002A70
:10157000E1D08B42F4D1A242F2DC04DBAE42EFD8E0
:101580000020AE42EFD25842434101205B42184353
:10159000E9E7002DD3D10020002FE4D1E0E7C046D9
:1015A00003F0A0F903F0ACF909480A4A0021121A25
:1015B00003F003F903F0C8F903F046F903F0A2F9C8
:1015C0000549002000F00AF803F0D2F8FEE7C04613
:1015D00008F4FF1F74F4FF1F08F4FF1F90B583B0D9
:1015E00000AF03F029F8FC1D03F078F8031C23700A
:1015F000FB1D1B78062B13D89A000A4BD3181B68C7
:101600009F4602F019FF0CE002F06AFF09E002F0C9
:10161000F1FF06E002F0A8FF03E002F07FFF00E028
:10162000C046E0E7CC4A000080B500AF044B1B7811
:10163000002B03D172B6024B01221A70BD4680BD49
:101640000CF4FF1F80B500AF044B1B78012B03D1B6
:1016500062B6024B00221A70BD4680BD0CF4FF1F1B
:1016600080B584B000AF021CFB1D1A700A49FB1D37
:101670001A7884235B0012018A18D3185B68DAB2E7
:101680000F23FB1801210A401A700F23FB181B7847
:10169000181CBD4604B080BD0070034090B583B0F7
:1016A00000AF021CFB1D1A700B48FB1D19780A4C79
:1016B000FB1D1A7884235B001201A218D3185B6803
:1016C00001221A4384235B0009014118CB185A6098
:1016D000BD4603B090BDC0460070034080B582B0E7
:1016E00000AF78607B689B6808221340181CBD46D9
:1016F00002B080BD80B582B000AF78607B689B6827
:1017000004221A437B689A60BD4602B080BDC04681
:1017100080B582B000AF78607B68DB68181CBD467E
:1017200002B080BD80B582B000AF78607B689B68F6
:1017300020221A437B689A60BD4602B080BDC04635
:1017400080B500AFFEE7C04680B500AFFEE7C046FB
:1017500080B500AFFEE7C04680B500AFFEE7C046EB
:1017600080B500AF00F078FF00F00CFA00F000FD4B
:10177000BD4680BD80B500AF0020FFF771FF031E9E
:1017800002D00020FFF78AFFBD4680BD80B500AFC4
:101790000120FFF765FF031E02D00120FFF77EFF47
:1017A000BD4680BD80B582B000AF0F4B181CFFF75F
:1017B00095FF031E14D00C4B181CFFF79BFF0A4B20
:1017C000181CFFF7A5FF031C7B607A688023DB04ED
:1017D000134005D0044B181CFFF7A4FF00F0BAFC1F
:1017E000BD4602B080BDC0460090074080B582B0C3
:1017F00000AF0F4B181CFFF771FF031E14D00C4BEA
:10180000181CFFF777FF0A4B181CFFF781FF031C1A
:101810007B607B682022134006D0054B181CFFF725
:1018200081FF012002F00AFBBD4602B080BDC04628
:1018300000A0074080B500AF064B1B688022134014
:1018400005D0044B034A126880218A431A60BD46C2
:1018500080BDC0460080034080B500AFBD4680BD5E
:1018600080B500AFBD4680BD80B500AFBD4680BD30
:1018700080B500AF1520002101F008FE152002F010
:101880002BF8BD4680BDC04680B500AF152002F0E4
:1018900071F8BD4680BDC04680B500AF152002F08E
:1018A0001BF8BD4680BDC04680B500AF102002F0D9
:1018B000AFF8031E01D0012300E00023181CBD4631
:1018C00080BDC04680B500AF112002F0A1F8031E14
:1018D00001D0012300E00023181CBD4680BDC04696
:1018E00080B582B000AF2C4B00229A722A4B0022A6
:1018F000DA72FB1D00221A7009E0FB1D1B78264AD4
:101900000021D154FB1D1A78FB1D01321A70FB1DFA
:101910001B78092BF1D9FB1D00221A702FE0FB1D4B
:101920001A781E49131C5B009B189B00CB180022E1
:101930009A80FB1D1A781949131C5B009B189B00A9
:10194000CB18FA225200DA80FB1D1A781349131CB7
:101950005B009B189B00CB18083302221A70FB1DFA
:101960001A780E49131C5B009B189B00CB18083398
:1019700000225A70FB1D1A78FB1D01321A70FB1DE4
:101980001B78012BCBD9054B054A1A60034B054A3E
:10199000DA60BD4602B080BD28F4FF1F10F4FF1FBF
:1019A000A9180000C518000080B500AF1020022162
:1019B00001F06CFD1120022101F068FDBD4680BDE3
:1019C00080B500AFFFF78CFFFFF7EEFFBD4680BD8F
:1019D00080B582B000AF021CFB1D1A700B4B9B7AC6
:1019E000191C0A4BFA1D12785A54084B9B7A013382
:1019F000DAB2064B9A72054B9B7A092B02D9034B3C
:101A000000229A72BD4602B080BDC04628F4FF1F76
:101A100080B582B000AF154BDA7A144B9B7A9A42AC
:101A200001D100231DE072B6104BDB7A191CFB1D9F
:101A30000E4A525C1A700D4BDB7A1A1C0B4B0021BC
:101A4000995462B6094BDB7A0133DAB2074BDA728A
:101A5000064BDB7A092B02D9044B0022DA72FB1DFC
:101A60001B78181CBD4602B080BDC04628F4FF1F7D
:101A700080B584B000AF021CFB1D1A70FB1D1A78E4
:101A8000131C5B009B189B003D4A9B18FB60FB6886
:101A90001B689847031E47D0FB681B7A042B03D8AA
:101AA000FB6805221A7267E0FB681B7A092B06D8CF
:101AB000FB681B7A0133DAB2FB681A725CE0FB68E0
:101AC0005B7A002B0DD1FB6801225A72FB1D1B783B
:101AD0001A1C9218D318DBB20133DBB2181CFFF7C3
:101AE00077FFFB68DB88002B46D0FB689A88FB6891
:101AF000DB889A4240D2FB689B8801339AB2FB682C
:101B00009A80FB689A88FB68DB889A4234D1FB1D77
:101B10001B780133DBB21A1C131CDB189B18DBB2D9
:101B2000181CFFF755FF27E0FB681B7A052B03D92C
:101B3000FB6805221A721CE0FB681B7A002B06D09A
:101B4000FB681B7A013BDAB2FB681A7211E0FB6892
:101B50005B7A012B0DD1FB6800225A72FB1D1B78AA
:101B60001A1C9218D318DBB20233DBB2181CFFF731
:101B70002FFFFB6800229A80BD4604B080BDC0469E
:101B800010F4FF1F80B582B000AFBB1D0A221A708F
:101B9000114B1B78DBB20133DBB20F4A191C1170F9
:101BA000BA1D12789A4214D80B4B00221A70FB1DF2
:101BB00000221A7009E0FB1D1B78181CFFF758FF64
:101BC000FB1D1A78FB1D01321A70FB1D1B78012BBF
:101BD000F1D9BD4602B080BD34F4FF1F90B587B087
:101BE00000AF021CBB1D1A80BB1D1B88181CFEF712
:101BF00075FF031C181CFFF7DDFA031C0C1C181CD6
:101C0000211C1D4A1D4BFEF7B1FF031C0C1C181CA8
:101C1000211CFFF723FB031C7B617869FEF7A8FDFD
:101C2000031C9AB21223FB18013A1A800823FB18EE
:101C300000221A700823FB181222BA1812885A8040
:101C40000823FB1800229A800823FB180122DA716E
:101C50000823FB1802229A710823FB180020191C84
:101C600001F054FF002002F047F8002001F0F2FFDD
:101C7000BD4607B090BDC0469A9999999999C93FB8
:101C800090B585B000AF78600C1C101C191CFB1CB3
:101C9000221C1A70BB1C021C1A707B1C0A1C1A70B6
:101CA0000F23FB1800221A7049E00F23FB181B7842
:101CB0007A68D2180D23FB1812781A700E23FB18BD
:101CC00008221A702FE0BB1C1B785BB2002B0ADACB
:101CD000BB1C1B785B00DAB27B1C1B785340DAB26A
:101CE000BB1C1A7004E0BA1CBB1C1B78DB181370F9
:101CF0000D23FB181B785BB2002B06DABB1CB91C4A
:101D00007A1C097812784A401A700D23FA180D23AC
:101D1000FB181B78DB1813700E23FB181A780E23A0
:101D2000FB18013A1A700E23FB181B78002BCAD13E
:101D30000F23FB181A780F23FB1801321A700F2398
:101D4000FA18FB1C12781B789A42AED3BB1C1B7886
:101D5000181CBD4605B090BD80B500AF1A2001F03B
:101D600057FE031E01D1012300E00023181CBD46CD
:101D700080BDC04680B58AB000AF3B1C1A780121F7
:101D80008A431A703B1C1A7802210A431A703B1CC2
:101D90001A7810210A431A703B1C1A7820210A4332
:101DA0001A702723FB1800221A7018E02723FB184B
:101DB0001B783A1CD3181A7902218A431A712723F7
:101DC000FB181B783A1CD3181A7901218A431A711F
:101DD0002723FB181A782723FB1801321A702723B0
:101DE000FB181B781F2BE1D93B1C9A7F01218A43EA
:101DF0009A773B1C9A7F02210A439A77044A3B1C3C
:101E0000101C00211A1C01F02BF8BD460AB080BD41
:101E10000090074080B58AB000AF3B1C1A780121C2
:101E20008A431A703B1C1A7802210A431A703B1C21
:101E30001A7810210A431A703B1C1A7820210A4391
:101E40001A702723FB1800221A7018E02723FB18AA
:101E50001B783A1CD3181A7902218A431A71272356
:101E6000FB181B783A1CD3181A7901218A431A717E
:101E70002723FB181A782723FB1801321A7027230F
:101E8000FB181B781F2BE1D93B1C9A7F01210A43C9
:101E90009A773B1C9A7F02210A439A77044A3B1C9B
:101EA000101C00211A1C00F0DBFFBD460AB080BDEB
:101EB0000090074080B582B000AF154B00229A72A7
:101EC000134B0022DA72FB1D00221A7009E0FB1D81
:101ED0001B780F4A0021D154FB1D1A78FB1D0132DB
:101EE0001A70FB1D1B78092BF1D90A4B0A4A1A609C
:101EF000084B00221A71074B00225A71054B012230
:101F00009A71044B0022DA71BD4602B080BDC04612
:101F100040F4FF1F38F4FF1F591D000090B583B037
:101F200000AFFB1D00221A701A4B1B78012B2AD11F
:101F300004E0FC1D00F05CF8031C2370FB1D1B7803
:101F4000002BF6D0144B1B78002B09D1FB1D1B78FE
:101F5000012B12D1104B01221A70FFF75BFF0CE02E
:101F60000D4B1B78012B08D1FB1D1B78022B04D1D4
:101F7000094B00221A70FFF7FDFE084B01229A71EF
:101F8000044B00221A70044B1B78181CBD4603B08A
:101F900090BDC04636F4FF1F35F4FF1F38F4FF1F15
:101FA00080B500AFFFF786FFFFF7E4FEBD4680BDBA
:101FB00080B582B000AF021CFB1D1A700B4B9B7AE0
:101FC000191C0A4BFA1D12785A54084B9B7A01339C
:101FD000DAB2064B9A72054B9B7A092B02D9034B56
:101FE00000229A72BD4602B080BDC04640F4FF1F79
:101FF00080B582B000AFFB1D00221A70154BDA7A53
:10200000144B9B7A9A4202D1FB1D1B781DE072B6DD
:10201000104BDB7A191CFB1D0E4A525C1A700D4BDB
:10202000DB7A1A1C0B4B0021995462B6094BDB7A00
:102030000133DAB2074BDA72064BDB7A092B02D98D
:10204000044B0022DA72FB1D1B78181CBD4602B03F
:1020500080BDC04640F4FF1F80B582B000AF3B4B4F
:102060007B603B4B1B78012B36D17B681B68984704
:10207000031E18D17B6800221A717B685B79042BE0
:1020800006D87B685B790133DAB27B685A7159E014
:102090007B689B79012B55D17B6800229A710220C5
:1020A000FFF786FF4EE07B6800225A717B681B7940
:1020B000042B06D87B681B790133DAB27B681A716E
:1020C00040E07B689B79012B3CD17B6800229A71B0
:1020D0000120FFF76DFF35E07B681B689847031E02
:1020E00018D07B6800225A717B681B79042B06D8B4
:1020F0007B681B790133DAB27B681A7122E07B6856
:102100009B79012B1ED17B6800229A710120FFF779
:102110004FFF17E07B6800221A717B685B79042B04
:1021200006D87B685B790133DAB27B685A7109E0C3
:102130007B689B79012B05D17B6800229A71022074
:10214000FFF736FFBD4602B080BDC04638F4FF1F22
:1021500035F4FF1F80B500AF044B1B78002B02D174
:10216000024B01221A70BD4680BDC04636F4FF1FE7
:1021700080B582B000AFFB1D0A221A700B4B1B7892
:10218000012B10D10A4BDB79DBB20133DBB2084AF9
:10219000191CD171FA1D12789A4204D8044B0022FE
:1021A000DA71FFF759FFBD4602B080BD36F4FF1F5C
:1021B00038F4FF1F80B582B000AF021CFB1D1A70FF
:1021C000064BFA1D1278111C1F220A400121914072
:1021D0000A1C1A60BD4602B080BDC04600E100E0A6
:1021E00080B582B000AF78607B681B78DBB22022BC
:1021F0009343DAB27B681A70BD4602B080BDC04618
:1022000080B582B000AF78607B681B78DBB220229B
:102210001343DAB27B681A70BD4602B080BDC04677
:1022200080B586B000AF786039603B685B687B61E1
:102230003B689B683B617B68614A93420CD1614B70
:10224000604AD26880218A43DA605E4B5D4A5269F7
:10225000802149030A435A617B685B4A934206D155
:10226000584B584A5269802189030A435A617B6856
:10227000564A934206D1534B524A52698021C903B0
:102280000A435A617B68DB78DBB20C229343DAB2F3
:102290007B68DA703B681A787B689A707B691A09E8
:1022A0003B695B08D318181C3969FEF7DFF8031C7B
:1022B0001A1C0E23FB181A807B681B78DAB20D23D8
:1022C000FB181F218A431A700E23FB181B881B0A58
:1022D0009BB2DBB21F221340DAB20D23FB181B782E
:1022E0001343DAB27B681A700E23FB181B88DAB22C
:1022F0007B685A703B68DB78012B04D17B68181C23
:10230000FFF77EFF03E07B68181CFFF769FF3B685F
:102310009A787B689A713B685A787B68DA703B6878
:102320005B7810221340DBB2002B30D13B685B7826
:1023300020221340DBB2002B29D13B685B7840227E
:102340001340DBB2002B22D13B685B787F229343A2
:10235000DBB2002B1BD13B689B7802221340DBB21F
:10236000002B14D13B689B7804221340DBB2002B76
:102370000DD13B689B7808221340DBB2002B06D1BD
:102380003B689B7801221340DBB2002B14D07B68A2
:102390000B4A934202D10C20FFF70CFF7B680A4ADC
:1023A000934202D10D20FFF705FF7B68074A934255
:1023B00002D10E20FFF7FEFEBD4606B080BDC0462E
:1023C00000A006400080044000B0064000C0064067
:1023D00080B584B000AF3B1D1A787F210A401A7087
:1023E0003B1D1A7840210A431A703B1D1A781021B0
:1023F0008A431A703B1D1A7808218A431A703B1DC4
:102400001A7804218A431A703B1D1A7802218A43E4
:102410001A703B1D5A787F210A405A703B1D5A782A
:1024200040218A435A703B1D5A7820218A435A70B2
:102430003B1D5A7810218A435A703B1D5A78082157
:102440000A435A703B1D5A7804210A435A703B1DB7
:102450005A7802218A435A703B1D5A7801218A43D7
:102460005A703B1D00229A703B1D0022DA70094B06
:102470001B685A083B1D5A603B1DE12252029A60BC
:10248000054A3B1D101C191CFFF7CAFEBD4604B0CF
:1024900080BDC04604F4FF1F00A0064080B582B096
:1024A00000AF021CFB1D1A70064BFA1D1278111C9E
:1024B0001F220A40012191400A1C1A60BD4602B049
:1024C00080BDC04600E100E0B0B582B000AF021CA4
:1024D0003960FB1D1A70FB1D1B787F2B2FD92D4CEB
:1024E000FB1D1B781A1C0F231340083B9908294A2F
:1024F000FB1D1B78181C0F230340083B9B08063369
:102500009B00D3185B68FA1D1278101C032202404E
:10251000D200101CFF228240D2431A403B689B012C
:10252000FF200340F81D0078051C03202840C00050
:1025300083401A438B1D9B00E3185A6026E0164C1B
:10254000FB1D1B785BB29B081349FA1D127852B22F
:102550009208C03292005258F91D0978081C0321D4
:102560000140C900081CFF218140C94311403A685D
:102570009201FF200240F81D0078051C032028402E
:10258000C00082400A43C0339B001A51BD4602B0CE
:10259000B0BDC04600ED00E000E100E080B582B0D3
:1025A00000AF78607B68013B0C4A934201D901235C
:1025B00010E00B4B7A68013A5A6001235B42181C09
:1025C0000321FFF781FF064B00229A60044B07228C
:1025D0001A600023181CBD4602B080BDFFFFFF003B
:1025E00010E000E090B583B000AF194B1C68194BA8
:1025F0001B781A1CFA239800111CFDF7C7FF031C57
:10260000201C191CFDF732FF031C7B607B68181C23
:10261000FFF7C4FF031E15D103233B603B68032B68
:102620000DD801235A423B68101C191CFFF74CFFC0
:1026300001235B42181CFFF731FF002304E0012354
:102640005B4201E001235B42181CBD4603B090BD14
:1026500004F4FF1F00F4FF1F80B500AF084B1B7888
:102660001A1C084B1B68D218064B1A60054B1B68D6
:10267000013302D1034B00221A60BD4680BDC04623
:1026800000F4FF1F4CF4FF1F80B500AF024B1B6826
:10269000181CBD4680BDC0464CF4FF1F80B584B0F9
:1026A00000AF7860FFF7F0FF031CFB607B68BB6046
:1026B000BB68002B00D108E0C046FFF7E5FF021C15
:1026C000FB68D21ABB689A42F7D3BD4604B080BDFE
:1026D00080B582B000AF021CFB1D1A70064BFA1DBC
:1026E0001278111C1F220A40012191400A1C1A6015
:1026F000BD4602B080BDC04600E100E080B582B0BA
:1027000000AF021CFB1D1A70074AFB1D1B78191C29
:102710001F230B40012199400B1C191C8023D15011
:10272000BD4602B080BDC04600E100E0B0B582B059
:1027300000AF021C3960FB1D1A70FB1D1B787F2B3C
:102740002FD92D4CFB1D1B781A1C0F231340083B5F
:102750009908294AFB1D1B78181C0F230340083BCE
:102760009B0806339B00D3185B68FA1D1278101C77
:1027700003220240D200101CFF228240D2431A40A2
:102780003B689B01FF200340F81D0078051C0320D7
:102790002840C00083401A438B1D9B00E3185A60F9
:1027A00026E0164CFB1D1B785BB29B081349FA1DF3
:1027B000127852B29208C03292005258F91D09782C
:1027C000081C03210140C900081CFF218140C943A6
:1027D00011403A689201FF200240F81D0078051C64
:1027E00003202840C00082400A43C0339B001A5196
:1027F000BD4602B0B0BDC04600ED00E000E100E023
:1028000080B500AF034B034A126802218A431A6065
:10281000BD4680BD0070034080B500AF034B034A46
:10282000126801210A431A60BD4680BD0070034052
:1028300090B583B000AF021CFB1D1A700B48FB1D46
:1028400019780A4CFB1D1A7884235B001201A21828
:10285000D3181B6801221A4384235B000901411825
:10286000CB181A60BD4603B090BDC046007003404F
:1028700090B583B000AF021CFB1D1A700B48FB1D06
:1028800019780A4CFB1D1A7884235B001201A218E8
:10289000D3181B6802221A4384235B0009014118E4
:1028A000CB181A60BD4603B090BDC046007003400F
:1028B00090B583B000AF021CFB1D1A700B48FB1DC6
:1028C00019780A4CFB1D1A7884235B001201A218A8
:1028D000D3181B6804221A4384235B0009014118A2
:1028E000CB181A60BD4603B090BDC04600700340CF
:1028F00080B582B000AF021C3960FB1D1A702B4BF3
:102900002A4A526902210A435A613B681B78012214
:102910001340DBB2002B01D0FFF77EFF3B681B7832
:1029200002221340DBB2002B01D1FFF769FF3B68A5
:102930005A68FB1D1B78181C111C00F039F83B6805
:102940005B7802221340DBB2002B10D0FB1D1B78FA
:10295000002B03D01720FFF7BBFE02E01620FFF785
:10296000B7FEFB1D1B78181CFFF782FF02E0162044
:10297000FFF7C4FE3B685B7804221340DBB2002BF8
:1029800004D0FB1D1B78181CFFF792FF3B685B7897
:1029900001221340DBB2002B04D0FB1D1B78181C56
:1029A000FFF746FFBD4602B080BDC0460080044030
:1029B00080B582B000AF021C3960FB1D1A7005495A
:1029C000FB1D1B7810331B013A685A50BD4602B0FC
:1029D00080BDC0460070034080B582B000AF3B1C94
:1029E0001A7801218A431A703B1C1A7802218A4303
:1029F0001A703B1C5A7801210A435A703B1C5A78C2
:102A000002210A435A703B1C5A7804218A435A70A7
:102A10003B1C074A5A603B1C0020191CFFF768FF4B
:102A200016200221FFF782FEBD4602B080BDC046DF
:102A30009F86010080B582B000AF021CFB1D1A709A
:102A4000064BFA1D1278111C1F220A4001219140E9
:102A50000A1C1A60BD4602B080BDC04600E100E01D
:102A6000B0B582B000AF021C3960FB1D1A70FB1DAF
:102A70001B787F2B2FD92D4CFB1D1B781A1C0F2385
:102A80001340083B9908294AFB1D1B78181C0F238B
:102A90000340083B9B0806339B00D3185B68FA1D74
:102AA0001278101C03220240D200101CFF22824028
:102AB000D2431A403B689B01FF200340F81D007879
:102AC000051C03202840C00083401A438B1D9B0037
:102AD000E3185A6026E0164CFB1D1B785BB29B087E
:102AE0001349FA1D127852B29208C032920052581D
:102AF000F91D0978081C03210140C900081CFF21A9
:102B00008140C94311403A689201FF200240F81DFC
:102B10000078051C03202840C00082400A43C033CF
:102B20009B001A51BD4602B0B0BDC04600ED00E0AA
:102B300000E100E080B5C6B000AF786039600023E6
:102B400086225200BA181360BE4B8C225200BA186B
:102B5000D218BD4B111C1A1C80235B00081C111CD1
:102B60001A1C01F021FE7B68B84A93420CD1B84B85
:102B7000B74A5269802149040A435A6100238822D6
:102B80005200BA1813600FE07B68B24A93420BD12F
:102B9000AF4BAF4A5269802189040A435A6101232D
:102BA00088225200BA1813607B6800229A600023C2
:102BB0008A225200BA181360E7E03A688A235B0061
:102BC000FB181B68D3181B799B07DB0FDBB2002BAC
:102BD00000D1D1E07B681B688A225200BA181268C3
:102BE000012191400A1C1A437B681A607B685B686C
:102BF0008A225200BA181268012191400A1CD2435D
:102C0000134039688A225200BA1812688A18127959
:102C1000D207D20FD2B2111C8A225200BA181268FF
:102C200091400A1C1A437B685A60864B8C225200E2
:102C30009446BC44634488225200BA181268510179
:102C40008A225200BA1812688A189200D358842235
:102C50005200BA18136088235B00FB181B68002B16
:102C600044D1F8231B06F8221206926984214900F8
:102C70007918096801208840011CC9430A409A61FB
:102C8000F8231B06F822120652698421490079189C
:102C9000096801208840011CC9430A405A613A680A
:102CA0008A235B00FB181B68D3181B79DB07DB0F3B
:102CB000DBB2002B0DD0684B674A92688421490033
:102CC0007918096801208840011CC9430A409A60AC
:102CD00052E0614B604A9268842149007918096882
:102CE00001208840011C0A439A6045E088235B006C
:102CF000FB181B68012B3FD1584B584A926984211D
:102D000049007918096801208840011CC9430A401C
:102D10009A61524B514A52698421490079180968D5
:102D200001208840011CC9430A405A613A688A233D
:102D30005B00FB181B68D3181B79DB07DB0FDBB2CA
:102D4000002B0DD0444B444AD268842149007918A5
:102D5000096801208840011CC9430A40DA600BE081
:102D60003D4B3D4AD2688421490079180968012009
:102D70008840011C0A43DA608A235B00FB181B6849
:102D800001338A225200BA1813608A235B00FB18B1
:102D90001B681F2B00D810E77B6804229A603B68F1
:102DA0001B78DB07DB0FDBB286225200BA181360F8
:102DB0007B689A6886235B00FB181B681A437B6854
:102DC0009A603B681B78DB06DB0FDBB21B018622B7
:102DD0005200BA1813607B689A6886235B00FB1860
:102DE0001B681A437B689A603B681B789B06DB0F65
:102DF000DBB25B0186225200BA1813607B689A68C6
:102E000086235B00FB181B681A437B689A603B684B
:102E10001B7802221340DBB2002B10D07B689B682A
:102E200002221A437B689A607B68084A934203D166
:102E30001820FFF7FFFD02E01920FFF7FBFDBD465C
:102E400046B080BDF0FEFFFF7C49000000900740C7
:102E50000080044000A0074000900440400000F8BB
:102E600080B586B000AFF8607A600B23FB180A1CAF
:102E70001A70FB680F4A934204D11723FB181822DB
:102E80001A7003E01723FB1819221A70FA687B687E
:102E9000101C191CFFF74EFE0B23FB181A78172382
:102EA000FB181B785BB2181C111CFFF7D9FDBD463F
:102EB00006B080BD0090074080B582B000AF021C14
:102EC000FB1D1A70064BFA1D1278111C1F220A40B6
:102ED000012191400A1C1A60BD4602B080BDC04667
:102EE00000E100E080B582B000AF78607B681B78BD
:102EF000DBB201221343DAB27B681A70BD4602B01E
:102F000080BDC04680B582B000AF78600A1CFB1C53
:102F10001A70FB1C1B78002B08D07B681B78DBB277
:102F200008221343DAB27B681A7007E07B681B78CB
:102F3000DBB208229343DAB27B681A70BD4602B056
:102F400080BDC04680B582B000AF78600A1CFB1C13
:102F50001A70FB1C1B78002B08D07B681B78DBB237
:102F600004221343DAB27B681A7007E07B681B788F
:102F7000DBB204229343DAB27B681A70BD4602B01A
:102F800080BDC04680B582B000AF78607B681B789A
:102F9000DBB240221343DAB27B681A70BD4602B03E
:102FA00080BDC04680B582B000AF78607B681B787A
:102FB000DBB2802252421343DAB27B681A70BD46FC
:102FC00002B080BD80B582B000AF78607B681B78AE
:102FD000DBB210221343DAB27B681A70BD4602B02E
:102FE00080BDC04680B582B000AF78607B681B783A
:102FF000DBB210229343DAB27B681A70BD4602B08E
:1030000080BDC04680B582B000AF78607B681B7819
:10301000DBB220221343DAB27B681A70BD4602B0DD
:1030200080BDC04680B582B000AF78607B681B78F9
:10303000DBB202221343DAB27B681A70BD4602B0DB
:1030400080BDC04680B582B000AF78607B685B7899
:10305000DBB2802252421343DAB27B685A70BD461B
:1030600002B080BD80B582B000AF78607B685B78CD
:10307000DBB210221343DAB27B685A70BD4602B04D
:1030800080BDC04680B582B000AF78607B685B7859
:10309000DBB208221343DAB27B685A70BD4602B035
:1030A00080BDC04680B582B000AF78607B685B7839
:1030B000DBB202221343DAB27B685A70BD4602B01B
:1030C00080BDC04680B582B000AF78607B685B7819
:1030D000DBB201221343DAB27B685A70BD4602B0FC
:1030E00080BDC04680B582B000AF78607B68DB7879
:1030F000DBB27F229343DBB2181CBD4602B080BD19
:1031000080B582B000AF78607B68DB78DBB22022CC
:103110001340DBB2181CBD4602B080BD80B582B042
:1031200000AF78607B685B79DBB2181CBD4602B0EB
:1031300080BDC04680B582B000AF78600A1CFB1C21
:103140001A707B68FA1C12785A71BD4602B080BDB5
:1031500080B582B000AF786039607B68704A934276
:103160000DD1704B6F4A52698021C9020A435A61DE
:103170006C4B6C4AD26840218A43DA600CE0694BA0
:10318000684A5269802109030A435A61654B654ABE
:10319000126965490A401A613B681B780122134095
:1031A000DBB2002B0ED07B68181CFFF7FBFE7B68A0
:1031B0005B4A934203D10A20FFF77EFE02E00B2018
:1031C000FFF77AFE3B681B7804221340DBB2002B2A
:1031D0000ED07B68181CFFF715FF7B68504A93429E
:1031E00003D10A20FFF768FE02E00B20FFF764FE20
:1031F0003B681B7808221340DBB2002B04D07B68AD
:10320000181CFFF7DFFE03E07B68181CFFF7EAFEDF
:103210003B681B7810221340DBB2002B04D07B6884
:10322000181C0121FFF76EFE3B681B78202213401B
:10323000DBB2002B04D07B68181C0121FFF782FE53
:103240003B681B787F229343DBB2002B03D07B6863
:10325000181CFFF747FE3B685B7801221340DBB286
:10326000002B03D07B68181CFFF7ECFE3B685B78F3
:1032700002221340DBB2002B03D07B68181CFFF73F
:10328000F1FE3B681B7840221340DBB2002B07D0D5
:103290007B68181CFFF7C6FE7B68181CFFF7E2FE70
:1032A0003B685B7808221340DBB2002B03D07B68BD
:1032B000181CFFF707FF3B685B7804221340DBB262
:1032C000002B03D07B68181CFFF7DCFE3B685B78A3
:1032D00010221340DBB2002B03D07B68181CFFF7D1
:1032E000E1FE3B681B7808221340DBB2002B09D0BB
:1032F0003B689A683B685B687968081C111C1A1C5B
:1033000000F014F83B681B7802221340DBB2002B5C
:1033100003D07B68181CFFF735FEBD4602B080BDA8
:103320000060074000800440FFF7FFFF80B586B0D3
:1033300000AFF860B9607A60B8687968FDF796F810
:10334000031C3B611523FB1800221A701623FB187F
:1033500000221A702FE01723FB1800221A7018E0C1
:103360001623FB181B7801333A69DA40131C172225
:10337000BA1812780132934204D81523FB1801229F
:103380001A700BE01723FB181A781723FB18013269
:103390001A701723FB181B78072BE1D91523FB188C
:1033A0001B78002B00D00BE01623FB181A7816238D
:1033B000FB1801321A701623FB181B78082BCAD988
:1033C0001723FB181B78072B03D91723FB18072299
:1033D0001A701623FB181B78082B03D91623FB1829
:1033E00008221A701723FB181B781B01DBB270220E
:1033F0001340DAB21623FB181B780F210B40DBB207
:103400001343DAB2FB689A70BD4606B080BDC04671
:1034100090B587B000AFF860B9607A603B60002378
:103420003B613B68002B01D13B692AE000237B61B3
:1034300022E0C046FB68181CFFF762FE031EF9D0AD
:103440007A687B69D3181B78FA68101C191CFFF77F
:1034500071FEC046FB68181CFFF744FE031EF9D03E
:10346000BA687B69D418FB68181CFFF757FE031C69
:1034700023707B6901337B617A693B689A42D8D3B8
:103480003B69181CBD4607B090BDC04680B582B0F0
:1034900000AF021CFB1D1A70BB1D0A1C1A70FB1D1D
:1034A0001B781F2B00D990E0BB1D1B78012B28D067
:1034B00002DC002B05D0B8E1022B44D0032B63D0F3
:1034C000B3E1E84BE74A5269F91D097801208840C9
:1034D000011C0A435A61E34BE24A9269F91D0978DB
:1034E00001208840011C0A439A61DF4BDE4A926842
:1034F000F91D097801208840011CC9430A409A60DF
:1035000062E0D84BD74A5269F91D097801208840FA
:10351000011CC9430A405A61D24BD24A9269F91D33
:10352000097801208840011CC9430A409A61CE4BAA
:10353000CD4A9268F91D097801208840011CC943D1
:103540000A409A6040E0C74BC64A5269F91D0978A3
:1035500001208840011CC9430A405A61C14BC14A3D
:103560009269F91D097801208840011CC9430A406D
:103570009A61BD4BBC4A9268F91D097801208840C8
:10358000011C0A439A601FE0B64BB64A5269F91D06
:10359000097801208840011C0A435A61B14BB14AA5
:1035A0009269F91D097801208840011C0A439A613B
:1035B000AD4BAD4A9268F91D097801208840011C85
:1035C000C9430A409A60C0462FE1FB1D1B783F2B80
:1035D00000D995E0FB1DFA1D1278203A1A70BB1D28
:1035E0001B78012B28D002DC002B05D01DE1022B1B
:1035F00044D0032B63D018E19C4B9C4A5269F91DBF
:10360000097801208840011C0A435A61974B974A68
:103610009269F91D097801208840011C0A439A61CA
:10362000914B914AD268F91D097801208840011C0C
:10363000C9430A40DA6062E08C4B8C4A5269F91D3A
:10364000097801208840011CC9430A405A61874B10
:10365000864A9269F91D097801208840011CC943F6
:103660000A409A61804B804AD268F91D097801208E
:103670008840011CC9430A40DA6040E07B4B7B4A2A
:103680005269F91D097801208840011CC9430A408C
:103690005A61764B754A9269F91D09780120884074
:1036A000011CC9430A409A616F4B6F4AD268F91DE9
:1036B000097801208840011C0A43DA601FE06B4B47
:1036C0006A4A5269F91D097801208840011C0A43A1
:1036D0005A61664B654A9269F91D09780120884054
:1036E000011C0A439A61604B5F4AD268F91D097850
:1036F00001208840011CC9430A40DA60C04694E0BA
:10370000FB1DFA1D1278403A1A70BB1D1B78012B65
:1037100028D002DC002B05D087E0022B44D0032BFD
:1037200063D082E0524B524A5269F91D0978012058
:103730008840011C0A435A614D4B4D4A9269F91D5C
:10374000097801208840011C0A439A61464B464A89
:103750001269F91D097801208840011CC9430A40FB
:103760001A6162E0424B424A5269F91D0978012010
:103770008840011CC9430A405A613D4B3C4A92694A
:10378000F91D097801208840011CC9430A409A614B
:10379000354B354A1269F91D097801208840011C12
:1037A000C9430A401A6140E0314B314A5269F91D60
:1037B000097801208840011CC9430A405A612C4BFA
:1037C0002B4A9269F91D097801208840011CC943E0
:1037D0000A409A61244B244A1269F91D0978012094
:1037E0008840011C0A431A611FE0214B204A52699C
:1037F000F91D097801208840011C0A435A611C4BBD
:103800001B4A9269F91D097801208840011C0A436E
:103810009A61154B144A1269F91D097801208840F4
:10382000011CC9430A401A61C046BB1D1B78032B0B
:103830004DD1FB1D1B780C3B2D2B47D89A000D4B0F
:10384000D3181B689F46084B074A526901210A4357
:103850005A613CE0044B044A526902210A435A610E
:1038600035E0C04600F00F400090044040F00F40AB
:1038700080F00F40E84A0000164B164A52690421B6
:103880000A435A6123E0134B124A526908210A4342
:103890005A611CE00F4B0F4A526910210A435A61CA
:1038A00015E00C4B0B4A526920210A435A610EE085
:1038B000084B084A526940210A435A6107E0054B08
:1038C000044A526980210A435A6100E0C046BD465D
:1038D00002B080BD0090044080B582B000AF021CF1
:1038E000FB1D1A70FB1D1B781F2B0AD81E4B1E4A8E
:1038F0005268F91D097801208840011C0A435A606A
:103900002FE0FB1D1B783F2B0FD8FB1DFA1D1278F3
:10391000203A1A70154B154A5268F91D0978012092
:103920008840011C0A435A601BE0FB1D1B78472B93
:1039300017D8FB1D1B78472B04D8FB1D1B78462B83
:1039400000D90EE0FB1DFA1D1278403A1A70084BA0
:10395000074A5268F91D097801208840011C0A4372
:103960005A60BD4602B080BD00F00F4040F00F40ED
:1039700080F00F4080B582B000AF021CFB1D1A70B2
:10398000FB1D1B781F2B0AD81E4B1E4A9268F91D7F
:10399000097801208840011C0A439A602FE0FB1D32
:1039A0001B783F2B0FD8FB1DFA1D1278203A1A7096
:1039B000154B154A9268F91D097801208840011CB1
:1039C0000A439A601BE0FB1D1B78472B17D8FB1D91
:1039D0001B78472B04D8FB1D1B78462B00D90EE023
:1039E000FB1DFA1D1278403A1A70084B074A92687C
:1039F000F91D097801208840011C0A439A60BD46E0
:103A000002B080BD00F00F4040F00F4080F00F404A
:103A100080B584B000AF021CFB1D1A700023FB6050
:103A2000FB1D1B781F2B09D81E4B1B69FA1D127832
:103A3000012191400A1C1340FB602EE0FB1D1B7806
:103A40003F2B0ED8FB1DFA1D1278203A1A70164B28
:103A50001B69FA1D1278012191400A1C1340FB607A
:103A60001BE0FB1D1B78472B17D8FB1D1B78472B32
:103A700005D8FB1D1B78462B01D9FB680EE0FB1D0A
:103A8000FA1D1278403A1A70084B1B69FA1D127819
:103A9000012191400A1C1340FB60FB68181CBD46C5
:103AA00004B080BD00F00F4040F00F4080F00F40A8
:103AB00080B582B000AF021CFB1D1A70064BFA1DC8
:103AC0001278111C1F220A40012191400A1C1A6021
:103AD000BD4602B080BDC04600E100E080B582B0C6
:103AE00000AF021CFB1D1A70074AFB1D1B78191C36
:103AF0001F230B40012199400B1C191C8023D1501E
:103B0000BD4602B080BDC04600E100E090B583B084
:103B100000AF021C3960FB1D1A70FB1D1A784A4960
:103B2000131C5B009B189B005A58FB1D19784648D4
:103B30000B1C5B005B189B001B581868FB1D197859
:103B4000414C0B1C5B005B189B00E3185B68034354
:103B50001360FB1D1B78022B0DD1FB1D1A783B4B0C
:103B60009200D358FA1D1178384A89008A58526D4C
:103B700004210A435A65FB1D1A78344B9200D3582E
:103B80003A6852889A60FB1D1A78304B9200D358DD
:103B900000225A60FB1D1A782C4B9200D358FA1D54
:103BA00011782A4A89008A58126820218A431A60AB
:103BB000FB1D1A78254B9200D358FA1D1178234A21
:103BC00089008A5811683A68D279D20018201040CA
:103BD0003A689279141C0722224002430A431A6071
:103BE0003B681B78002B15D0FB1D1A78174B9200F1
:103BF000D358FA1D1178154A89008A581268402155
:103C00000A431A60FB1D1B78114AD35C5BB2181C77
:103C1000FFF74EFFFB1D1A780C4B9200D3581B6820
:103C2000802213400DD0FB1D1A78084B9200D35808
:103C3000FA1D1178054A89008A58126880218A4342
:103C40001A60BD4603B090BDAC4B0000A04B000015
:103C5000D04B000090B583B000AF021CFB1D1A7062
:103C6000FB1D1A78214B9200D3581B684022134049
:103C700007D0FB1D1B781E4AD35C5BB2181CFFF7F4
:103C80002DFFFB1D1A78194B9200D35800225A6061
:103C9000FB1D1A78154B9200D35800229A60FB1D29
:103CA0001A78124B9200D35800221A60FB1D1A7822
:103CB0001049131C5B009B189B005A58FB1D197878
:103CC0000C480B1C5B005B189B001B581868FB1D05
:103CD0001978084C0B1C5B005B189B00E3185B68B1
:103CE000DB4303401360BD4603B090BDA04B000012
:103CF000D04B0000AC4B000080B582B000AF021C7E
:103D0000FB1D1A70C046FB1D1A780C4B9200D3584D
:103D10001B6880221340F6D0FB1D1A78074B9200D7
:103D2000D358FA1D1178054A89008A5812688021F3
:103D30008A431A60BD4602B080BDC046A04B000059
:103D400080B584B000AF78600E23FB1800221A8083
:103D50007B68181C3549FCF789FB031CDAB20D237C
:103D6000FB18013A1A70324B5B79DBB2DBB25BB203
:103D7000002B0BDB0E23FB180E22BA1812882D49DC
:103D80000A431A800E23FB181B884BE0284BDB7874
:103D9000DBB21A1C402313402ED1254BDB78DBB25B
:103DA000DBB25BB2002B16DA214BDB78DBB21A1CDC
:103DB0000D23FB181B7853403F2213400BD00E23DA
:103DC000FB180E22BA1812881B490A431A800E23C8
:103DD000FB181B8826E01649154BDB78DBB23F2227
:103DE0009343DAB20D23FB181B783F200340DBB26C
:103DF0001343DBB2CB7012E00D4BDB78DBB21A1C45
:103E00000D23FB181B7853403F22134007D00E238D
:103E1000FB180E22BA18128807490A431A800E238B
:103E2000FB181B88181CBD4604B080BD40420F0023
:103E300000000240143000001830000080B582B04D
:103E400000AF021CFB1D1A7072B6044BFA1D1278EB
:103E50001A7362B6BD4602B080BDC04658F4FF1F5B
:103E600080B500AF024B1B7B181CBD4680BDC04611
:103E700058F4FF1F80B500AF014B181CBD4680BD34
:103E800058F4FF1F80B584B000AF78600A1CFB1C9B
:103E90001A700D20FFF76EFD0F23FB1800221A7019
:103EA0001AE00F23FB181B787A68D3181A780E23B0
:103EB000FB181A700F490D23FA180E23FB18081C63
:103EC000111C1A1C0123FFF7A3FA0F23FB181A7801
:103ED0000F23FB1801321A700F23FA18FB1C1278FB
:103EE0001B789A42DDD30D20FFF7F6FCBD4604B0E7
:103EF00080BDC0460060074080B586B000AFF86066
:103F0000081C7A60191C0B23FB18021C1A700A2368
:103F1000FB180A1C1A701423FB1800221A700D20BB
:103F2000FFF728FD1723FB1800221A701AE0172349
:103F3000FB181B78FA68D3181A781623FB181A7026
:103F400025491523FA181623FB18081C111C1A1CE6
:103F50000123FFF75DFA1723FB181A781723FB18C4
:103F600001321A701723FA180B23FB1812781B78EA
:103F70009A42DCD31723FB1800221A701EE0162386
:103F8000FB1800221A7014491623FA181423FB1880
:103F9000081C111C1A1C0123FFF73AFA1723FB18FF
:103FA0001B787A68D3181622BA1812781A70172359
:103FB000FB181A781723FB1801321A701723FA1806
:103FC0000A23FB1812781B789A42D8D30D20FFF7EA
:103FD00083FCBD4606B080BD0060074080B500AFE1
:103FE00019200321FFF752FA1920FFF7C3FC0A201A
:103FF000FEF754FB1920FFF76FFCBD4680BDC0469D
:1040000080B58AB000AF3B1C1A7801218A431A7030
:104010003B1C1A7802210A431A703B1C1A781021A3
:104020000A431A703B1C1A7820210A431A7027236E
:10403000FB1800221A7018E02723FB181B783A1C83
:10404000D3181A7902218A431A712723FB181B7887
:104050003A1CD3181A7901218A431A712723FB18B5
:104060001A782723FB1801321A702723FB181B78B4
:104070001F2BE1D93B1C5A7A01218A435A723B1CFF
:104080005A7A02210A435A72044A3B1C101C00212E
:104090001A1CFEF7E5FEBD460AB080BD00A0074031
:1040A00080B584B000AF2C4B1B685A083B1D9A604A
:1040B0003B1D2A4A5A603B1D1A7801218A431A7017
:1040C0003B1D1A7802210A431A703B1D1A780421FD
:1040D0008A431A703B1D1A7808210A431A703B1D47
:1040E0001A7810210A431A703B1D1A7820210A43BE
:1040F0001A703B1D1A7840218A431A703B1D1A78AA
:104100007F210A401A703B1D5A7801218A435A7058
:104110003B1D5A7802218A435A703B1D5A7804216C
:104120008A435A703B1D5A7808218A435A703B1DB6
:104130005A7810218A435A70094A3B1D101C191CD9
:10414000FFF706F80D200021FFF7A0F90D20FFF77B
:10415000C3FBBD4604B080BD04F4FF1FA086010070
:104160000060074080B582B000AF3A1D0B4B111CB8
:104170001A1C0223081C111C1A1C00F015FB3A1D06
:10418000FB1D101C02211A1C0123FFF7B5FEFB1DAD
:104190001B78181CBD4602B080BDC0467C4A00009A
:1041A00080B582B000AF3A1D0B4B111C1A1C0223C4
:1041B000081C111C1A1C00F0F7FA3A1DFB1D101CFC
:1041C00002211A1C0123FFF797FEFB1D1B78181C08
:1041D000BD4602B080BDC046804A000090B585B0A3
:1041E00000AF78600823FB1800221A700823FB1820
:1041F00000225A700823FB1800229A700F23FB1824
:1042000000221A700E23FB1800221A7077E02FE0AC
:104210000E23FB181B780E22BA18591C11701A1C99
:104220007B689B181A780823FB181A700E23FB185A
:104230001B780E22BA18591C11701A1C7B689B1827
:104240001A780823FB185A700E23FB181B780E22CD
:10425000BA18591C11701A1C7B689B181A7808230D
:10426000FB189A700823FB18181C0321FFF70AFE9D
:104270000823FB185B78A62BCAD10823FB189B7870
:10428000002BC5D00D23FC18FFF76CFF031C237017
:104290000C23FC18FFF784FF031C23700D23FB186D
:1042A0001B78A62B11D10C23FB181B78002B0CD0EC
:1042B0000C23FB181B78122B03D1154B01221A700B
:1042C00022E0134B02221A701EE00F23FB181A780B
:1042D0000F23FB1801321A700D4B00221A700823AD
:1042E000FB1800221A700823FB1800225A700823BA
:1042F000FB1800229A700E23FB1800221A700F235D
:10430000FB181B78042B82D9BD4605B090BDC04672
:1043100050F4FF1F80B582B000AF3A1D1A4B111C3C
:104320001A1C0223081C111C1A1C00F03DFA3A1D2D
:10433000164B101C02211A1C0123FFF7DDFD3B1D4B
:10434000B7225A703A1D124B101C02211A1C01236D
:10435000FFF7D2FD3B1DB8225A703A1D0D4B101CC1
:1043600002211A1C0123FFF7C7FD3B1DB9225A7019
:104370003A1D094B101C02211A1C0123FFF7BCFD3A
:10438000BD4602B080BDC046844A000054F4FF1F01
:1043900055F4FF1F56F4FF1F57F4FF1F80B582B07E
:1043A00000AFFB1D00221A70BB1D04221A7072B6EA
:1043B000FB1D1A78164BD318BA1D101C01211A1CAC
:1043C0000423FFF799FDFB1DFA1D127804321A70C1
:1043D000FB1D1A780E4BD318BA1D101C01211A1C94
:1043E0000423FFF789FDFB1DFA1D127804321A70B1
:1043F000FB1D1A78064BD318BA1D101C01211A1C7C
:104400000423FFF779FD62B6BD4602B080BDC04609
:1044100058F4FF1F80B500AFFFF7E0FDFFF740FE47
:10442000044B181CFFF7DAFEFFF774FFFFF7E8FDF7
:10443000BD4680BDD44B000090B585B000AFFFF7FE
:1044400019FD031CFB60FA235B01181CFDF7C6FB7A
:10445000FDF71AFAFA235B01181CFDF7BFFBFDF705
:104460001BFAFFF7FDFC031E012B2BD1FFF796FF74
:10447000FB680B22BC18181C072100220723FDF73C
:10448000FFFB031C2370FB68DB790B22BA18127840
:104490009A4214D1FB681B781A06FB685B781B04F0
:1044A000D218FB689B781B02D318FA68D2789B1845
:1044B0007B607B68054A934201D100237B6000202A
:1044C000FFF7BCFCBD4605B090BDC0460F6925088E
:1044D00080B500AFBD4680BD80B500AFBD4680BD94
:1044E00090B583B000AFFB1D00221A70FFF7F0FFFC
:1044F000FFF7F2FFFC1DFDF78BFA031C2370FB1D79
:104500001B78032B03D1052000F0D6F802E006202B
:1045100000F0D2F8BD4603B090BDC04690B583B060
:1045200000AFFB1D00221A70FC1DFDF7F7FC031CF9
:104530002370FB1D1B78002B03D1022000F0BCF878
:1045400002E0042000F0B8F8BD4603B090BDC046BC
:1045500080B500AFBD4680BD80B500AFBD4680BD13
:1045600080B500AFBD4680BD90B583B000AFBB1D28
:1045700000221A70FB1D00221A707B1D01221A7086
:10458000FFF7E6FFFFF7E8FFBC1DFDF741FA031C4C
:104590002370BB1D1B78042B0BD0062B0BD0032BD9
:1045A00000D009E0052000F087F8FB1D01221A70F9
:1045B00002E0C04600E0C046FB1D1B78012B00D185
:1045C0000DE0FFF7CDFF7C1DFDF7A8FC031C237059
:1045D0007B1D1B78002B02D1022000F06DF8BD4638
:1045E00003B090BD80B500AFBD4680BD80B500AFC3
:1045F000BD4680BD90B583B000AFFB1D00221A7090
:10460000BB1D01221A70FFF7EDFFFC1DFDF700FA3C
:10461000031C2370FFF7EAFFBC1DFDF77FFC031CA2
:104620002370BB1D1B78002B02D1022000F044F840
:10463000BD4603B090BDC04690B583B000AFFCF757
:10464000F3FF1B4B1A4A526802218A435A60194BE6
:104650001B685B08181CFFF773FBFDF7C3FFFEF731
:10466000BBF9FDF79DFCFDF7ABF9FDF701F9FDF78F
:10467000AFFEFFF7CFFEFCF7E5FFFC1DFDF74EFC9C
:10468000031C2370FB1D1B78002B05D0012B07D1C9
:10469000042000F011F807E0022000F00DF803E01C
:1046A000022000F009F8C046BD4603B090BDC046E8
:1046B0000080044004F4FF1F80B582B000AF021CEC
:1046C000FB1D1A7072B6044BFA1D12781A7062B68E
:1046D000BD4602B080BDC04601F4FF1F80B500AFEB
:1046E000024B1B78181CBD4680BDC04601F4FF1F5D
:1046F00080B500AF194B1A4A9A80184B01225A70A4
:10470000164B23221A70174B882252045A62164AFB
:10471000154B5B78DBB21F210B40DBB25370124BA1
:1047200000225A70114B96221A700F4B0022DA7039
:104730000D4B20221A70C0460C4B1B78DBB21A1CA2
:1047400001231340F8D0C046074B1B79DBB21A1C7B
:104750000C231340F8D1BD4680BDC0460020054063
:1047600003E8FFFF00800440004006400050064080
:1047700038B5051C00F0A8F800F08AF8084C23684A
:10478000002B02D0984700232360064C2368002B9F
:1047900002D0984700232360281C00F093F838BD0E
:1047A00068F4FF1F6CF4FF1F002310B5934203D081
:1047B000CC5CC4540133F9E710BD10B5041C00F003
:1047C00002F8201C10BDC9B230B50B1C1F2A33D90A
:1047D00003234442234006D0041CD21AC01821707F
:1047E0000134A042FBD10023994206D00B060C04F1
:1047F00023430D0219430B1C2B4354090FD0011CFA
:10480000251C013D0B604B608B60CB600B614B61E5
:104810008B61CB612031002DF3D164010019D106E9
:10482000490F07D0051C0C1C013C08C5002CFBD10E
:104830008900401803210A40002A04D0821803701E
:1048400001309042FBD130BD10B50B4C0B4B9C425C
:1048500002D008CC9847F9E7094C0A4B9C4202D099
:1048600008CC9847F9E7084C084B9C4202D008CC8A
:104870009847F9E710BDC046344C0000344C0000A6
:10488000344C0000344C0000344C0000344C000028
:1048900010B5084C084B9C4202D008CC9847F9E769
:1048A000064C074B221D9A4203D023689847043CCC
:1048B000F7E710BD344C0000344C0000304C0000D1
:1048C000344C0000FEE70000054B10B51C68002CBE
:1048D00004D0A068636898472468F8E710BDC04614
:1048E00070F4FF1F054B181C002805D0854681B0C9
:1048F0000020C043009001B0F746704700F4FF1F4E
:10490000F7467047F746704710B588421BD0002A1B
:1049100019D0031C0B439C0705D1032A03D908C9EE
:10492000043A08C0F3E7DB0707D4012A05D90B884E
:10493000023A038002310230E9E70B78013A037052
:1049400001310130E3E710BD0A4B10B50A4C002BD2
:104950000FD0231F1968002905D020686268FFF76F
:10496000D3FF0C34F5E72368002BF6D16368002BE6
:10497000F3D110BD3C4C0000404C00000000000092
:10498000010000000200000003000000040000001D
:1049900005000000060000000700000008000000FD
:1049A000090000000A0000000B0000000C000000DD
:1049B0000D0000000E0000000F00000010000000BD
:1049C000110000001200000013000000140000009D
:1049D000150000001600000017000000180000007D
:1049E000190000001A0000001B0000001C0000005D
:1049F0001D0000001E0000001F000000000000005D
:104A0000010000000200000003000000040000009C
:104A1000050000000600000007000000080000007C
:104A2000090000000A0000000B0000000C0000005C
:104A30000D0000000E0000000F000000100000003C
:104A4000110000001200000013000000140000001C
:104A500015000000160000001700000018000000FC
:104A6000190000001A0000001B0000001C000000DC
:104A70001D0000001E0000001F00000003B3000026
:104A800003B4000003B6000003AB0000400D0000BB
:104A90002E0C0000140D00001A0C0000140D000074
:104AA0001E0D0000140D00001A0C00002E0C00005A
:104AB0002E0C00001E0D00001A0C0000240C00003B
:104AC000240C0000240C0000860F000020160000BB
:104AD00020160000021600001A160000081600003A
:104AE0000E1600001416000046380000543800006E
:104AF000CC380000CC380000CC380000CC380000A6
:104B0000CC380000CC380000CC380000CC38000095
:104B1000CC380000CC38000078380000863800001F
:104B2000CC380000CC380000CC380000CC38000075
:104B3000CC380000CC38000094380000A2380000C7
:104B4000CC380000CC380000CC380000CC38000055
:104B5000CC380000CC380000CC380000CC38000045
:104B6000CC380000CC380000CC380000CC38000035
:104B7000CC380000CC380000CC380000CC38000025
:104B8000CC380000CC380000CC380000CC38000015
:104B9000CC380000CC380000B0380000BE3800002F
:104BA000008003400090034000A0034014800440B4
:104BB00020000000000000001480044040000000BD
:104BC000000000001480044080000000000000008D
:104BD0001112130002A600028000021702021A0836
:104BE00002242802267E022D50022F0802312202C2
:104BF0003902023A0E023B2A023C09023D34023ECF
:104C000003024802024E100251560252550255014B
:104C10000256410258050281520282110294070293
:104C20009801029903029A75029B32029CF102A636
:044C3000120000006E
:084C340001010000005A6202B8
:104C3C00344C000000F4FF1F0800000000000000CE
:084C4C00000000000000000060
:0400000300000411E4
:00000001FF
